{
  "contractName": "ComputersRent",
  "abi": [
    {
      "inputs": [
        {
          "internalType": "string",
          "name": "name",
          "type": "string"
        },
        {
          "internalType": "string",
          "name": "symbol",
          "type": "string"
        }
      ],
      "stateMutability": "payable",
      "type": "constructor",
      "payable": true
    },
    {
      "anonymous": false,
      "inputs": [
        {
          "indexed": true,
          "internalType": "address",
          "name": "owner",
          "type": "address"
        },
        {
          "indexed": true,
          "internalType": "address",
          "name": "approved",
          "type": "address"
        },
        {
          "indexed": true,
          "internalType": "uint256",
          "name": "tokenId",
          "type": "uint256"
        }
      ],
      "name": "Approval",
      "type": "event"
    },
    {
      "anonymous": false,
      "inputs": [
        {
          "indexed": true,
          "internalType": "address",
          "name": "owner",
          "type": "address"
        },
        {
          "indexed": true,
          "internalType": "address",
          "name": "operator",
          "type": "address"
        },
        {
          "indexed": false,
          "internalType": "bool",
          "name": "approved",
          "type": "bool"
        }
      ],
      "name": "ApprovalForAll",
      "type": "event"
    },
    {
      "anonymous": false,
      "inputs": [
        {
          "indexed": true,
          "internalType": "address",
          "name": "from",
          "type": "address"
        },
        {
          "indexed": true,
          "internalType": "address",
          "name": "to",
          "type": "address"
        },
        {
          "indexed": true,
          "internalType": "uint256",
          "name": "tokenId",
          "type": "uint256"
        }
      ],
      "name": "Transfer",
      "type": "event"
    },
    {
      "inputs": [
        {
          "internalType": "address",
          "name": "to",
          "type": "address"
        },
        {
          "internalType": "uint256",
          "name": "tokenId",
          "type": "uint256"
        }
      ],
      "name": "approve",
      "outputs": [],
      "stateMutability": "nonpayable",
      "type": "function"
    },
    {
      "inputs": [
        {
          "internalType": "address",
          "name": "owner",
          "type": "address"
        }
      ],
      "name": "balanceOf",
      "outputs": [
        {
          "internalType": "uint256",
          "name": "",
          "type": "uint256"
        }
      ],
      "stateMutability": "view",
      "type": "function",
      "constant": true
    },
    {
      "inputs": [
        {
          "internalType": "uint256",
          "name": "",
          "type": "uint256"
        }
      ],
      "name": "computers",
      "outputs": [
        {
          "internalType": "string",
          "name": "name",
          "type": "string"
        },
        {
          "internalType": "address",
          "name": "owner",
          "type": "address"
        },
        {
          "internalType": "bool",
          "name": "isRented",
          "type": "bool"
        },
        {
          "internalType": "bool",
          "name": "isRenterPay",
          "type": "bool"
        },
        {
          "internalType": "uint256",
          "name": "rentPricePerMinute",
          "type": "uint256"
        },
        {
          "internalType": "uint256",
          "name": "rentedUntil",
          "type": "uint256"
        },
        {
          "internalType": "string",
          "name": "processor",
          "type": "string"
        },
        {
          "internalType": "uint256",
          "name": "memorySize",
          "type": "uint256"
        },
        {
          "internalType": "string",
          "name": "graphicsCard",
          "type": "string"
        },
        {
          "internalType": "uint256",
          "name": "ssdCapacity",
          "type": "uint256"
        },
        {
          "internalType": "address",
          "name": "renterPaymentAddress",
          "type": "address"
        }
      ],
      "stateMutability": "view",
      "type": "function",
      "constant": true
    },
    {
      "inputs": [
        {
          "internalType": "uint256",
          "name": "tokenId",
          "type": "uint256"
        }
      ],
      "name": "getApproved",
      "outputs": [
        {
          "internalType": "address",
          "name": "",
          "type": "address"
        }
      ],
      "stateMutability": "view",
      "type": "function",
      "constant": true
    },
    {
      "inputs": [
        {
          "internalType": "address",
          "name": "owner",
          "type": "address"
        },
        {
          "internalType": "address",
          "name": "operator",
          "type": "address"
        }
      ],
      "name": "isApprovedForAll",
      "outputs": [
        {
          "internalType": "bool",
          "name": "",
          "type": "bool"
        }
      ],
      "stateMutability": "view",
      "type": "function",
      "constant": true
    },
    {
      "inputs": [],
      "name": "name",
      "outputs": [
        {
          "internalType": "string",
          "name": "",
          "type": "string"
        }
      ],
      "stateMutability": "view",
      "type": "function",
      "constant": true
    },
    {
      "inputs": [
        {
          "internalType": "uint256",
          "name": "tokenId",
          "type": "uint256"
        }
      ],
      "name": "ownerOf",
      "outputs": [
        {
          "internalType": "address",
          "name": "",
          "type": "address"
        }
      ],
      "stateMutability": "view",
      "type": "function",
      "constant": true
    },
    {
      "inputs": [
        {
          "internalType": "address",
          "name": "from",
          "type": "address"
        },
        {
          "internalType": "address",
          "name": "to",
          "type": "address"
        },
        {
          "internalType": "uint256",
          "name": "tokenId",
          "type": "uint256"
        }
      ],
      "name": "safeTransferFrom",
      "outputs": [],
      "stateMutability": "nonpayable",
      "type": "function"
    },
    {
      "inputs": [
        {
          "internalType": "address",
          "name": "from",
          "type": "address"
        },
        {
          "internalType": "address",
          "name": "to",
          "type": "address"
        },
        {
          "internalType": "uint256",
          "name": "tokenId",
          "type": "uint256"
        },
        {
          "internalType": "bytes",
          "name": "data",
          "type": "bytes"
        }
      ],
      "name": "safeTransferFrom",
      "outputs": [],
      "stateMutability": "nonpayable",
      "type": "function"
    },
    {
      "inputs": [
        {
          "internalType": "address",
          "name": "operator",
          "type": "address"
        },
        {
          "internalType": "bool",
          "name": "approved",
          "type": "bool"
        }
      ],
      "name": "setApprovalForAll",
      "outputs": [],
      "stateMutability": "nonpayable",
      "type": "function"
    },
    {
      "inputs": [
        {
          "internalType": "bytes4",
          "name": "interfaceId",
          "type": "bytes4"
        }
      ],
      "name": "supportsInterface",
      "outputs": [
        {
          "internalType": "bool",
          "name": "",
          "type": "bool"
        }
      ],
      "stateMutability": "view",
      "type": "function",
      "constant": true
    },
    {
      "inputs": [],
      "name": "symbol",
      "outputs": [
        {
          "internalType": "string",
          "name": "",
          "type": "string"
        }
      ],
      "stateMutability": "view",
      "type": "function",
      "constant": true
    },
    {
      "inputs": [
        {
          "internalType": "uint256",
          "name": "tokenId",
          "type": "uint256"
        }
      ],
      "name": "tokenURI",
      "outputs": [
        {
          "internalType": "string",
          "name": "",
          "type": "string"
        }
      ],
      "stateMutability": "view",
      "type": "function",
      "constant": true
    },
    {
      "inputs": [
        {
          "internalType": "address",
          "name": "from",
          "type": "address"
        },
        {
          "internalType": "address",
          "name": "to",
          "type": "address"
        },
        {
          "internalType": "uint256",
          "name": "tokenId",
          "type": "uint256"
        }
      ],
      "name": "transferFrom",
      "outputs": [],
      "stateMutability": "nonpayable",
      "type": "function"
    },
    {
      "inputs": [
        {
          "internalType": "address",
          "name": "to",
          "type": "address"
        },
        {
          "internalType": "string",
          "name": "computerName_",
          "type": "string"
        },
        {
          "internalType": "uint256",
          "name": "rentPricePerMinute",
          "type": "uint256"
        },
        {
          "internalType": "string",
          "name": "processor_",
          "type": "string"
        },
        {
          "internalType": "uint256",
          "name": "memorySize_",
          "type": "uint256"
        },
        {
          "internalType": "string",
          "name": "graphicsCard_",
          "type": "string"
        },
        {
          "internalType": "uint256",
          "name": "ssdCapacity_",
          "type": "uint256"
        }
      ],
      "name": "mint",
      "outputs": [
        {
          "internalType": "uint256",
          "name": "",
          "type": "uint256"
        }
      ],
      "stateMutability": "nonpayable",
      "type": "function"
    },
    {
      "inputs": [
        {
          "internalType": "uint256",
          "name": "tokenId",
          "type": "uint256"
        },
        {
          "internalType": "address",
          "name": "to",
          "type": "address"
        }
      ],
      "name": "rentByTime",
      "outputs": [],
      "stateMutability": "payable",
      "type": "function",
      "payable": true
    },
    {
      "inputs": [
        {
          "internalType": "uint256",
          "name": "tokenId",
          "type": "uint256"
        },
        {
          "internalType": "address",
          "name": "from",
          "type": "address"
        }
      ],
      "name": "returnFromRent",
      "outputs": [],
      "stateMutability": "nonpayable",
      "type": "function"
    },
    {
      "inputs": [
        {
          "internalType": "uint256",
          "name": "tokenId",
          "type": "uint256"
        }
      ],
      "name": "isRented",
      "outputs": [
        {
          "internalType": "bool",
          "name": "",
          "type": "bool"
        }
      ],
      "stateMutability": "view",
      "type": "function",
      "constant": true
    },
    {
      "inputs": [
        {
          "internalType": "uint256",
          "name": "tokenId",
          "type": "uint256"
        }
      ],
      "name": "getComputerDetails",
      "outputs": [
        {
          "internalType": "string",
          "name": "computerName",
          "type": "string"
        },
        {
          "internalType": "address",
          "name": "owner",
          "type": "address"
        },
        {
          "internalType": "bool",
          "name": "isRented",
          "type": "bool"
        },
        {
          "internalType": "bool",
          "name": "isRenterPay",
          "type": "bool"
        },
        {
          "internalType": "uint256",
          "name": "rentPricePerMinute",
          "type": "uint256"
        },
        {
          "internalType": "uint256",
          "name": "rentedUntil",
          "type": "uint256"
        },
        {
          "internalType": "string",
          "name": "processor",
          "type": "string"
        },
        {
          "internalType": "uint256",
          "name": "memorySize",
          "type": "uint256"
        },
        {
          "internalType": "string",
          "name": "graphicsCard",
          "type": "string"
        },
        {
          "internalType": "uint256",
          "name": "ssdCapacity",
          "type": "uint256"
        },
        {
          "internalType": "address",
          "name": "renterPaymentAddress",
          "type": "address"
        }
      ],
      "stateMutability": "view",
      "type": "function",
      "constant": true
    },
    {
      "inputs": [],
      "name": "getAllTokenIds",
      "outputs": [
        {
          "internalType": "uint256[]",
          "name": "",
          "type": "uint256[]"
        }
      ],
      "stateMutability": "view",
      "type": "function",
      "constant": true
    },
    {
      "inputs": [
        {
          "internalType": "uint256",
          "name": "tokenId",
          "type": "uint256"
        }
      ],
      "name": "burn",
      "outputs": [],
      "stateMutability": "nonpayable",
      "type": "function"
    },
    {
      "inputs": [
        {
          "internalType": "uint256",
          "name": "tokenId",
          "type": "uint256"
        },
        {
          "internalType": "address",
          "name": "paymentAddress",
          "type": "address"
        }
      ],
      "name": "refundRent",
      "outputs": [],
      "stateMutability": "nonpayable",
      "type": "function"
    },
    {
      "inputs": [
        {
          "internalType": "uint256",
          "name": "tokenId",
          "type": "uint256"
        }
      ],
      "name": "payRent",
      "outputs": [],
      "stateMutability": "payable",
      "type": "function",
      "payable": true
    },
    {
      "inputs": [
        {
          "internalType": "address",
          "name": "to",
          "type": "address"
        }
      ],
      "name": "getBalances",
      "outputs": [
        {
          "internalType": "uint256",
          "name": "",
          "type": "uint256"
        }
      ],
      "stateMutability": "view",
      "type": "function",
      "constant": true
    },
    {
      "inputs": [],
      "name": "getComputerCount",
      "outputs": [
        {
          "internalType": "uint256",
          "name": "",
          "type": "uint256"
        }
      ],
      "stateMutability": "view",
      "type": "function",
      "constant": true
    }
  ],
  "bytecode": "0x6080604052604051620031dc380380620031dc833981016040819052620000269162000115565b818160006200003683826200020e565b5060016200004582826200020e565b5050505050620002da565b634e487b7160e01b600052604160045260246000fd5b600082601f8301126200007857600080fd5b81516001600160401b038082111562000095576200009562000050565b604051601f8301601f19908116603f01168101908282118183101715620000c057620000c062000050565b81604052838152602092508683858801011115620000dd57600080fd5b600091505b83821015620001015785820183015181830184015290820190620000e2565b600093810190920192909252949350505050565b600080604083850312156200012957600080fd5b82516001600160401b03808211156200014157600080fd5b6200014f8683870162000066565b935060208501519150808211156200016657600080fd5b50620001758582860162000066565b9150509250929050565b600181811c908216806200019457607f821691505b602082108103620001b557634e487b7160e01b600052602260045260246000fd5b50919050565b601f8211156200020957600081815260208120601f850160051c81016020861015620001e45750805b601f850160051c820191505b818110156200020557828155600101620001f0565b5050505b505050565b81516001600160401b038111156200022a576200022a62000050565b62000242816200023b84546200017f565b84620001bb565b602080601f8311600181146200027a5760008415620002615750858301515b600019600386901b1c1916600185901b17855562000205565b600085815260208120601f198616915b82811015620002ab578886015182559484019460019091019084016200028a565b5085821015620002ca5787850151600019600388901b60f8161c191681555b5050505050600190811b01905550565b612ef280620002ea6000396000f3fe6080604052600436106101665760003560e01c806372d3014c116100d1578063b88d4fde1161008a578063c87b56dd11610064578063c87b56dd14610456578063d9e8843f14610476578063e985e9c514610489578063f4c7c140146104a957600080fd5b8063b88d4fde146103de578063bdbed722146103fe578063c84aae171461042057600080fd5b806372d3014c146103415780637cddb77f146103545780638377213f1461036957806395d89b4114610389578063a22cb4651461039e578063aa15d40f146103be57600080fd5b8063319a723711610123578063319a72371461027357806342842e0e146102a157806342966c68146102c1578063634268aa146102e15780636352211e1461030157806370a082311461032157600080fd5b806301ffc9a71461016b57806306fdde03146101a0578063081812fc146101c2578063095ea7b3146101fa5780631622a6501461021c57806323b872dd14610253575b600080fd5b34801561017757600080fd5b5061018b610186366004612678565b6104c9565b60405190151581526020015b60405180910390f35b3480156101ac57600080fd5b506101b561051b565b60405161019791906126e5565b3480156101ce57600080fd5b506101e26101dd3660046126f8565b6105ad565b6040516001600160a01b039091168152602001610197565b34801561020657600080fd5b5061021a61021536600461272d565b6105d4565b005b34801561022857600080fd5b5061023c6102373660046126f8565b6106ee565b6040516101979b9a99989796959493929190612757565b34801561025f57600080fd5b5061021a61026e3660046127ed565b610a06565b34801561027f57600080fd5b5061029361028e3660046128d5565b610a38565b604051908152602001610197565b3480156102ad57600080fd5b5061021a6102bc3660046127ed565b610c16565b3480156102cd57600080fd5b5061021a6102dc3660046126f8565b610c31565b3480156102ed57600080fd5b5061023c6102fc3660046126f8565b610e88565b34801561030d57600080fd5b506101e261031c3660046126f8565b6110ac565b34801561032d57600080fd5b5061029361033c36600461298b565b61110c565b61021a61034f3660046129a6565b611192565b34801561036057600080fd5b50600654610293565b34801561037557600080fd5b5061021a6103843660046129a6565b6115b1565b34801561039557600080fd5b506101b56117e0565b3480156103aa57600080fd5b5061021a6103b93660046129d2565b6117ef565b3480156103ca57600080fd5b5061018b6103d93660046126f8565b6117fa565b3480156103ea57600080fd5b5061021a6103f9366004612a0e565b611833565b34801561040a57600080fd5b5061041361186a565b6040516101979190612a8a565b34801561042c57600080fd5b5061029361043b36600461298b565b6001600160a01b031660009081526008602052604090205490565b34801561046257600080fd5b506101b56104713660046126f8565b6118c1565b61021a6104843660046126f8565b611935565b34801561049557600080fd5b5061018b6104a4366004612ace565b611b43565b3480156104b557600080fd5b5061021a6104c43660046129a6565b611b71565b60006001600160e01b031982166380ac58cd60e01b14806104fa57506001600160e01b03198216635b5e139f60e01b145b8061051557506301ffc9a760e01b6001600160e01b03198316145b92915050565b60606000805461052a90612af8565b80601f016020809104026020016040519081016040528092919081815260200182805461055690612af8565b80156105a35780601f10610578576101008083540402835291602001916105a3565b820191906000526020600020905b81548152906001019060200180831161058657829003601f168201915b5050505050905090565b60006105b882611df4565b506000908152600460205260409020546001600160a01b031690565b60006105df826110ac565b9050806001600160a01b0316836001600160a01b0316036106515760405162461bcd60e51b815260206004820152602160248201527f4552433732313a20617070726f76616c20746f2063757272656e74206f776e656044820152603960f91b60648201526084015b60405180910390fd5b336001600160a01b038216148061066d575061066d8133611b43565b6106df5760405162461bcd60e51b815260206004820152603d60248201527f4552433732313a20617070726f76652063616c6c6572206973206e6f7420746f60448201527f6b656e206f776e6572206f7220617070726f76656420666f7220616c6c0000006064820152608401610648565b6106e98383611e56565b505050565b606060008060008060006060600060606000806107228c6000908152600260205260409020546001600160a01b0316151590565b6107945760405162461bcd60e51b815260206004820152603b60248201527f436f6d70757465727352656e743a20636f6d70757465722064657461696c732060448201527f717565727920666f72206e6f6e6578697374656e7420746f6b656e00000000006064820152608401610648565b600060068d815481106107a9576107a9612b32565b90600052602060002090600902019050600760008e81526020019081526020016000208160010160009054906101000a90046001600160a01b03168260010160149054906101000a900460ff168360010160159054906101000a900460ff16846002015485600301548660040187600501548860060189600701548a60080160009054906101000a90046001600160a01b03168a805461084890612af8565b80601f016020809104026020016040519081016040528092919081815260200182805461087490612af8565b80156108c15780601f10610896576101008083540402835291602001916108c1565b820191906000526020600020905b8154815290600101906020018083116108a457829003601f168201915b50505050509a508480546108d490612af8565b80601f016020809104026020016040519081016040528092919081815260200182805461090090612af8565b801561094d5780601f106109225761010080835404028352916020019161094d565b820191906000526020600020905b81548152906001019060200180831161093057829003601f168201915b5050505050945082805461096090612af8565b80601f016020809104026020016040519081016040528092919081815260200182805461098c90612af8565b80156109d95780601f106109ae576101008083540402835291602001916109d9565b820191906000526020600020905b8154815290600101906020018083116109bc57829003601f168201915b505050505092509b509b509b509b509b509b509b509b509b509b509b505091939597999b90929496989a50565b610a11335b82611ec4565b610a2d5760405162461bcd60e51b815260040161064890612b48565b6106e9838383611f23565b6006805460408051610160810182528981526001600160a01b038b1660208201526000918101829052606081018290526080810189905260a0810182905260c0810188905260e081018790526101008101869052610120810185905261014081018290526001830184559281528251909290600983027ff652222313e28459528d920b65115c16c04f3efc82aaedc97be59f3f377c0d3f01908190610add9082612be3565b506020820151600182018054604085015160608601511515600160a81b0260ff60a81b19911515600160a01b026001600160a81b03199093166001600160a01b039095169490941791909117169190911790556080820151600282015560a0820151600382015560c08201516004820190610b589082612be3565b5060e082015160058201556101008201516006820190610b789082612be3565b5061012082015160078281019190915561014090920151600890910180546001600160a01b0319166001600160a01b03909216919091179055600082815260209190915260409020610bca8982612be3565b50610bd58982612087565b600980546001810182556000919091527f6e1540171b6c0c960b71a7020d9f60077f6af931a8bbf590da0223dacf75c7af0181905598975050505050505050565b6106e983838360405180602001604052806000815250611833565b610c3a33610a0b565b610c565760405162461bcd60e51b815260040161064890612ca3565b6000610c61826110ac565b905060068281548110610c7657610c76612b32565b6000918252602090912060099091020160010154600160a01b900460ff1615610cf55760405162461bcd60e51b815260206004820152602b60248201527f436f6d70757465727352656e743a20636f6d707574657220697320637572726560448201526a1b9d1b1e481c995b9d195960aa1b6064820152608401610648565b610cfe82612212565b60068281548110610d1157610d11612b32565b60009182526020822060099091020190610d2b8282612614565b6001820180546001600160b01b031916905560006002830181905560038301819055610d5b906004840190612614565b6005820160009055600682016000610d739190612614565b5060006007828101829055600890920180546001600160a01b031916905583815260209190915260408120610da791612614565b60005b6009548110156106e9578260098281548110610dc857610dc8612b32565b906000526020600020015403610e7657805b600954610de990600190612cfe565b811015610e49576009610dfd826001612d11565b81548110610e0d57610e0d612b32565b906000526020600020015460098281548110610e2b57610e2b612b32565b60009182526020909120015580610e4181612d24565b915050610dda565b506009805480610e5b57610e5b612d3d565b60019003818190600052602060002001600090559055505050565b80610e8081612d24565b915050610daa565b60068181548110610e9857600080fd5b9060005260206000209060090201600091509050806000018054610ebb90612af8565b80601f0160208091040260200160405190810160405280929190818152602001828054610ee790612af8565b8015610f345780601f10610f0957610100808354040283529160200191610f34565b820191906000526020600020905b815481529060010190602001808311610f1757829003601f168201915b5050505060018301546002840154600385015460048601805495966001600160a01b0385169660ff600160a01b870481169750600160a81b90960490951694909190610f7f90612af8565b80601f0160208091040260200160405190810160405280929190818152602001828054610fab90612af8565b8015610ff85780601f10610fcd57610100808354040283529160200191610ff8565b820191906000526020600020905b815481529060010190602001808311610fdb57829003601f168201915b50505050509080600501549080600601805461101390612af8565b80601f016020809104026020016040519081016040528092919081815260200182805461103f90612af8565b801561108c5780601f106110615761010080835404028352916020019161108c565b820191906000526020600020905b81548152906001019060200180831161106f57829003601f168201915b5050505060078301546008909301549192916001600160a01b031690508b565b6000818152600260205260408120546001600160a01b0316806105155760405162461bcd60e51b8152602060048201526018602482015277115490cdcc8c4e881a5b9d985b1a59081d1bdad95b88125160421b6044820152606401610648565b60006001600160a01b0382166111765760405162461bcd60e51b815260206004820152602960248201527f4552433732313a2061646472657373207a65726f206973206e6f7420612076616044820152683634b21037bbb732b960b91b6064820152608401610648565b506001600160a01b031660009081526003602052604090205490565b61119d335b83611ec4565b6111b95760405162461bcd60e51b815260040161064890612ca3565b600682815481106111cc576111cc612b32565b6000918252602090912060099091020160010154600160a01b900460ff16156112075760405162461bcd60e51b815260040161064890612d53565b6006828154811061121a5761121a612b32565b60009182526020909120600160099092020181015460ff600160a81b909104161515146112985760405162461bcd60e51b815260206004820152602660248201527f436f6d70757465727352656e743a2072656e7465722068617320616c726561646044820152651e481c185a5960d21b6064820152608401610648565b600682815481106112ab576112ab612b32565b90600052602060002090600902016002015460086000836001600160a01b03166001600160a01b0316815260200190815260200160002054101561134b5760405162461bcd60e51b815260206004820152603160248201527f436f6d70757465727352656e743a206e6f7420656e6f7567682062616c616e6360448201527019481d1bc81c185e48199bdc881c995b9d607a1b6064820152608401610648565b6001600160a01b03811633036113d35760405162461bcd60e51b815260206004820152604160248201527f436f6d70757465727352656e743a20636f6d70757465722063616e206f6e6c7960448201527f2062652072656e74656420746f206120737065636966696564206164647265736064820152607360f81b608482015260a401610648565b600682815481106113e6576113e6612b32565b90600052602060002090600902016002015460086000836001600160a01b03166001600160a01b03168152602001908152602001600020600082825461142c9190612cfe565b9250508190555060006006838154811061144857611448612b32565b6000918252602090912060016009909202010154600680546001600160a01b03909216918590811061147c5761147c612b32565b90600052602060002090600902016002015460405160006040518083038185875af1925050503d80600081146114ce576040519150601f19603f3d011682016040523d82523d6000602084013e6114d3565b606091505b50509050806115305760405162461bcd60e51b815260206004820152602360248201527f436f6d70757465727352656e743a206661696c656420746f2073656e642066756044820152626e647360e81b6064820152608401610648565b61153b42603c612d11565b6006848154811061154e5761154e612b32565b90600052602060002090600902016003018190555060016006848154811061157857611578612b32565b906000526020600020906009020160010160146101000a81548160ff0219169083151502179055506106e96115aa3390565b8385611f23565b806001600160a01b03166115c4836110ac565b6001600160a01b0316146116385760405162461bcd60e51b815260206004820152603560248201527f436f6d70757465727352656e743a206f776e65722063616e277420726574757260448201527437103a37b5b2b710333937b6903cb7bab939b2b63360591b6064820152608401610648565b6006828154811061164b5761164b612b32565b60009182526020909120600160099092020181015460ff600160a01b909104161515146116c85760405162461bcd60e51b815260206004820152602560248201527f436f6d70757465727352656e743a20636f6d7075746572206973206e6f742072604482015264195b9d195960da1b6064820152608401610648565b600682815481106116db576116db612b32565b9060005260206000209060090201600301544210156117515760405162461bcd60e51b815260206004820152602c60248201527f436f6d70757465727352656e743a2072656e742074696d6520686173206e6f7460448201526b081e595d08195e1c1a5c995960a21b6064820152608401610648565b60006006838154811061176657611766612b32565b906000526020600020906009020160010160146101000a81548160ff0219169083151502179055506000600683815481106117a3576117a3612b32565b906000526020600020906009020160010160156101000a81548160ff0219169083151502179055506117dc816117d63390565b84611f23565b5050565b60606001805461052a90612af8565b6117dc3383836122a7565b60006006828154811061180f5761180f612b32565b6000918252602090912060099091020160010154600160a01b900460ff1692915050565b61183c33611197565b6118585760405162461bcd60e51b815260040161064890612b48565b61186484848484612375565b50505050565b606060098054806020026020016040519081016040528092919081815260200182805480156105a357602002820191906000526020600020905b8154815260200190600101908083116118a4575050505050905090565b60606118cc82611df4565b60006118e360408051602081019091526000815290565b90506000815111611903576040518060200160405280600081525061192e565b8061190d846123a8565b60405160200161191e929190612d9c565b6040516020818303038152906040525b9392505050565b6006818154811061194857611948612b32565b6000918252602090912060099091020160010154600160a01b900460ff16156119835760405162461bcd60e51b815260040161064890612d53565b61198c816110ac565b6001600160a01b031633036119ef5760405162461bcd60e51b8152602060048201526024808201527f436f6d70757465727352656e743a206f776e65722063616e6e6f7420706179206044820152631c995b9d60e21b6064820152608401610648565b60068181548110611a0257611a02612b32565b9060005260206000209060090201600201543414611a6e5760405162461bcd60e51b815260206004820152602360248201527f436f6d70757465727352656e743a20696e636f72726563742072656e7420707260448201526269636560e81b6064820152608401610648565b6000349050600160068381548110611a8857611a88612b32565b906000526020600020906009020160010160156101000a81548160ff021916908315150217905550611ab73390565b60068381548110611aca57611aca612b32565b906000526020600020906009020160080160006101000a8154816001600160a01b0302191690836001600160a01b031602179055508060086000611b0b3390565b6001600160a01b03166001600160a01b031681526020019081526020016000206000828254611b3a9190612d11565b90915550505050565b6001600160a01b03918216600090815260056020908152604080832093909416825291909152205460ff1690565b611b7a826110ac565b6001600160a01b0316336001600160a01b031614611bf25760405162461bcd60e51b815260206004820152602f60248201527f436f6d70757465727352656e743a206f6e6c7920746f6b656e206f776e65722060448201526e18d85b881c99599d5b99081c995b9d608a1b6064820152608401610648565b60068281548110611c0557611c05612b32565b60009182526020909120600160099092020181015460ff600160a81b90910416151514611c7f5760405162461bcd60e51b815260206004820152602260248201527f436f6d70757465727352656e743a2072656e74657220686173206e6f742070616044820152611a5960f21b6064820152608401610648565b6000816001600160a01b031660068481548110611c9e57611c9e612b32565b90600052602060002090600902016002015460405160006040518083038185875af1925050503d8060008114611cf0576040519150601f19603f3d011682016040523d82523d6000602084013e611cf5565b606091505b5050905080611d525760405162461bcd60e51b8152602060048201526024808201527f436f6d70757465727352656e743a206661696c656420746f20726566756e64206044820152631c995b9d60e21b6064820152608401610648565b60068381548110611d6557611d65612b32565b90600052602060002090600902016002015460086000846001600160a01b03166001600160a01b031681526020019081526020016000206000828254611dab9190612cfe565b92505081905550600060068481548110611dc757611dc7612b32565b906000526020600020906009020160010160156101000a81548160ff021916908315150217905550505050565b6000818152600260205260409020546001600160a01b0316611e535760405162461bcd60e51b8152602060048201526018602482015277115490cdcc8c4e881a5b9d985b1a59081d1bdad95b88125160421b6044820152606401610648565b50565b600081815260046020526040902080546001600160a01b0319166001600160a01b0384169081179091558190611e8b826110ac565b6001600160a01b03167f8c5be1e5ebec7d5bd14f71427d1e84f3dd0314c0f7b2291e5b200ac8c7c3b92560405160405180910390a45050565b600080611ed0836110ac565b9050806001600160a01b0316846001600160a01b03161480611ef75750611ef78185611b43565b80611f1b5750836001600160a01b0316611f10846105ad565b6001600160a01b0316145b949350505050565b826001600160a01b0316611f36826110ac565b6001600160a01b031614611f5c5760405162461bcd60e51b815260040161064890612dcb565b6001600160a01b038216611fbe5760405162461bcd60e51b8152602060048201526024808201527f4552433732313a207472616e7366657220746f20746865207a65726f206164646044820152637265737360e01b6064820152608401610648565b826001600160a01b0316611fd1826110ac565b6001600160a01b031614611ff75760405162461bcd60e51b815260040161064890612dcb565b600081815260046020908152604080832080546001600160a01b03199081169091556001600160a01b0387811680865260038552838620805460001901905590871680865283862080546001019055868652600290945282852080549092168417909155905184937fddf252ad1be2c89b69c2b068fc378daa952ba7f163c4a11628f55a4df523b3ef91a4505050565b6001600160a01b0382166120dd5760405162461bcd60e51b815260206004820181905260248201527f4552433732313a206d696e7420746f20746865207a65726f20616464726573736044820152606401610648565b6000818152600260205260409020546001600160a01b0316156121425760405162461bcd60e51b815260206004820152601c60248201527f4552433732313a20746f6b656e20616c7265616479206d696e746564000000006044820152606401610648565b6000818152600260205260409020546001600160a01b0316156121a75760405162461bcd60e51b815260206004820152601c60248201527f4552433732313a20746f6b656e20616c7265616479206d696e746564000000006044820152606401610648565b6001600160a01b038216600081815260036020908152604080832080546001019055848352600290915280822080546001600160a01b0319168417905551839291907fddf252ad1be2c89b69c2b068fc378daa952ba7f163c4a11628f55a4df523b3ef908290a45050565b600061221d826110ac565b9050612228826110ac565b600083815260046020908152604080832080546001600160a01b03199081169091556001600160a01b0385168085526003845282852080546000190190558785526002909352818420805490911690555192935084927fddf252ad1be2c89b69c2b068fc378daa952ba7f163c4a11628f55a4df523b3ef908390a45050565b816001600160a01b0316836001600160a01b0316036123085760405162461bcd60e51b815260206004820152601960248201527f4552433732313a20617070726f766520746f2063616c6c6572000000000000006044820152606401610648565b6001600160a01b03838116600081815260056020908152604080832094871680845294825291829020805460ff191686151590811790915591519182527f17307eab39ab6107e8899845ad3d59bd9653f200f220920489ca2b5937696c31910160405180910390a3505050565b612380848484611f23565b61238c8484848461243b565b6118645760405162461bcd60e51b815260040161064890612e10565b606060006123b58361253c565b600101905060008167ffffffffffffffff8111156123d5576123d5612829565b6040519080825280601f01601f1916602001820160405280156123ff576020820181803683370190505b5090508181016020015b600019016f181899199a1a9b1b9c1cb0b131b232b360811b600a86061a8153600a850494508461240957509392505050565b60006001600160a01b0384163b1561253157604051630a85bd0160e11b81526001600160a01b0385169063150b7a029061247f903390899088908890600401612e62565b6020604051808303816000875af19250505080156124ba575060408051601f3d908101601f191682019092526124b791810190612e9f565b60015b612517573d8080156124e8576040519150601f19603f3d011682016040523d82523d6000602084013e6124ed565b606091505b50805160000361250f5760405162461bcd60e51b815260040161064890612e10565b805181602001fd5b6001600160e01b031916630a85bd0160e11b149050611f1b565b506001949350505050565b60008072184f03e93ff9f4daa797ed6e38ed64bf6a1f0160401b831061257b5772184f03e93ff9f4daa797ed6e38ed64bf6a1f0160401b830492506040015b6d04ee2d6d415b85acef810000000083106125a7576d04ee2d6d415b85acef8100000000830492506020015b662386f26fc1000083106125c557662386f26fc10000830492506010015b6305f5e10083106125dd576305f5e100830492506008015b61271083106125f157612710830492506004015b60648310612603576064830492506002015b600a83106105155760010192915050565b50805461262090612af8565b6000825580601f10612630575050565b601f016020900490600052602060002090810190611e5391905b8082111561265e576000815560010161264a565b5090565b6001600160e01b031981168114611e5357600080fd5b60006020828403121561268a57600080fd5b813561192e81612662565b60005b838110156126b0578181015183820152602001612698565b50506000910152565b600081518084526126d1816020860160208601612695565b601f01601f19169290920160200192915050565b60208152600061192e60208301846126b9565b60006020828403121561270a57600080fd5b5035919050565b80356001600160a01b038116811461272857600080fd5b919050565b6000806040838503121561274057600080fd5b61274983612711565b946020939093013593505050565b600061016080835261276b8184018f6126b9565b6001600160a01b038e811660208601528d151560408601528c15156060860152608085018c905260a085018b905284820360c08601529091506127ae828a6126b9565b91508760e08501528382036101008501526127c982886126b9565b92508561012085015280851661014085015250509c9b505050505050505050505050565b60008060006060848603121561280257600080fd5b61280b84612711565b925061281960208501612711565b9150604084013590509250925092565b634e487b7160e01b600052604160045260246000fd5b600067ffffffffffffffff8084111561285a5761285a612829565b604051601f8501601f19908116603f0116810190828211818310171561288257612882612829565b8160405280935085815286868601111561289b57600080fd5b858560208301376000602087830101525050509392505050565b600082601f8301126128c657600080fd5b61192e8383356020850161283f565b600080600080600080600060e0888a0312156128f057600080fd5b6128f988612711565b9650602088013567ffffffffffffffff8082111561291657600080fd5b6129228b838c016128b5565b975060408a0135965060608a013591508082111561293f57600080fd5b61294b8b838c016128b5565b955060808a0135945060a08a013591508082111561296857600080fd5b506129758a828b016128b5565b92505060c0880135905092959891949750929550565b60006020828403121561299d57600080fd5b61192e82612711565b600080604083850312156129b957600080fd5b823591506129c960208401612711565b90509250929050565b600080604083850312156129e557600080fd5b6129ee83612711565b915060208301358015158114612a0357600080fd5b809150509250929050565b60008060008060808587031215612a2457600080fd5b612a2d85612711565b9350612a3b60208601612711565b925060408501359150606085013567ffffffffffffffff811115612a5e57600080fd5b8501601f81018713612a6f57600080fd5b612a7e8782356020840161283f565b91505092959194509250565b6020808252825182820181905260009190848201906040850190845b81811015612ac257835183529284019291840191600101612aa6565b50909695505050505050565b60008060408385031215612ae157600080fd5b612aea83612711565b91506129c960208401612711565b600181811c90821680612b0c57607f821691505b602082108103612b2c57634e487b7160e01b600052602260045260246000fd5b50919050565b634e487b7160e01b600052603260045260246000fd5b6020808252602d908201527f4552433732313a2063616c6c6572206973206e6f7420746f6b656e206f776e6560408201526c1c881bdc88185c1c1c9bdd9959609a1b606082015260800190565b601f8211156106e957600081815260208120601f850160051c81016020861015612bbc5750805b601f850160051c820191505b81811015612bdb57828155600101612bc8565b505050505050565b815167ffffffffffffffff811115612bfd57612bfd612829565b612c1181612c0b8454612af8565b84612b95565b602080601f831160018114612c465760008415612c2e5750858301515b600019600386901b1c1916600185901b178555612bdb565b600085815260208120601f198616915b82811015612c7557888601518255948401946001909101908401612c56565b5085821015612c935787850151600019600388901b60f8161c191681555b5050505050600190811b01905550565b60208082526025908201527f436f6d70757465727352656e743a206e6f74206f776e6572206e6f72206170706040820152641c9bdd995960da1b606082015260800190565b634e487b7160e01b600052601160045260246000fd5b8181038181111561051557610515612ce8565b8082018082111561051557610515612ce8565b600060018201612d3657612d36612ce8565b5060010190565b634e487b7160e01b600052603160045260246000fd5b60208082526029908201527f436f6d70757465727352656e743a20636f6d707574657220697320616c726561604082015268191e481c995b9d195960ba1b606082015260800190565b60008351612dae818460208801612695565b835190830190612dc2818360208801612695565b01949350505050565b60208082526025908201527f4552433732313a207472616e736665722066726f6d20696e636f72726563742060408201526437bbb732b960d91b606082015260800190565b60208082526032908201527f4552433732313a207472616e7366657220746f206e6f6e20455243373231526560408201527131b2b4bb32b91034b6b83632b6b2b73a32b960711b606082015260800190565b6001600160a01b0385811682528416602082015260408101839052608060608201819052600090612e95908301846126b9565b9695505050505050565b600060208284031215612eb157600080fd5b815161192e8161266256fea26469706673582212209867b0bf3db873f93561574255b07c7c5c04399cd8550479b122cfd15aa1113564736f6c63430008120033",
  "immutableReferences": {},
  "source": "pragma solidity ^0.8.18;\n\nimport \"@openzeppelin/contracts/token/ERC721/ERC721.sol\";\n\ncontract ComputersRent is ERC721 {\n    struct Computer {\n        string name;\n        address owner;\n        bool isRented;\n        bool isRenterPay;\n        uint256 rentPricePerMinute;\n        uint256 rentedUntil;\n        string processor;\n        uint256 memorySize;\n        string graphicsCard;\n        uint256 ssdCapacity;\n        address renterPaymentAddress; //   \n    }\n\n    Computer[] public computers;\n    mapping(uint256 => string) private _computerName;\n    mapping(address => uint256) balances;\n\n    uint256[] tokenIds;\n\n    constructor(string memory name, string memory symbol) ERC721(name, symbol) payable {}\n\n    function mint(\n        address to,\n        string memory computerName_,\n        uint256 rentPricePerMinute,\n        string memory processor_,\n        uint256 memorySize_,\n        string memory graphicsCard_,\n        uint256 ssdCapacity_\n    ) public returns (uint256) {\n        uint256 tokenId = computers.length;\n        computers.push(\n            Computer(\n                computerName_,\n                to,\n                false,\n                false,\n                rentPricePerMinute,\n                0,\n                processor_,\n                memorySize_,\n                graphicsCard_,\n                ssdCapacity_,\n                address(0)\n            )\n        );\n        _computerName[tokenId] = computerName_;\n        _mint(to, tokenId);\n        tokenIds.push(tokenId);\n        return tokenId;\n    }\n\n    function rentByTime(uint256 tokenId, address to) public payable {\n        require(_isApprovedOrOwner(_msgSender(), tokenId), \"ComputersRent: not owner nor approved\");\n        require(computers[tokenId].isRented == false, \"ComputersRent: computer is already rented\");\n        require(computers[tokenId].isRenterPay == true, \"ComputersRent: renter has already paid\");\n        require(balances[to] >= computers[tokenId].rentPricePerMinute, \"ComputersRent: not enough balance to pay for rent\");\n        require(_msgSender() != to, \"ComputersRent: computer can only be rented to a specified address\");\n\n        balances[to] -= computers[tokenId].rentPricePerMinute;\n\n        (bool success,) = computers[tokenId].owner.call{value: computers[tokenId].rentPricePerMinute}(\"\");\n        require(success, \"ComputersRent: failed to send funds\");\n\n        computers[tokenId].rentedUntil = block.timestamp + 60;\n        computers[tokenId].isRented = true;\n\n        _transfer(_msgSender(), to, tokenId);\n    }\n\n    function returnFromRent(uint256 tokenId, address from) public {\n\n        require(ownerOf(tokenId) == from, \"ComputersRent: owner can't return token from yourself\");\n        require(computers[tokenId].isRented == true, \"ComputersRent: computer is not rented\");\n        require(block.timestamp >= computers[tokenId].rentedUntil, \"ComputersRent: rent time has not yet expired\");\n\n        computers[tokenId].isRented = false;\n        computers[tokenId].isRenterPay = false;\n        _transfer(from, _msgSender(), tokenId);\n    }\n\n    function isRented(uint256 tokenId) public view returns (bool) {\n        return computers[tokenId].isRented;\n    }\n\n    function getComputerDetails(uint256 tokenId) public view returns (\n        string memory computerName,\n        address owner,\n        bool isRented,\n        bool isRenterPay,\n        uint256 rentPricePerMinute,\n        uint256 rentedUntil,\n        string memory processor,\n        uint256 memorySize,\n        string memory graphicsCard,\n        uint256 ssdCapacity,\n        address renterPaymentAddress\n    ) {\n        require(_exists(tokenId), \"ComputersRent: computer details query for nonexistent token\");\n        Computer storage computer = computers[tokenId];\n        return (\n            _computerName[tokenId],\n            computer.owner,\n            computer.isRented,\n            computer.isRenterPay,\n            computer.rentPricePerMinute,\n            computer.rentedUntil,\n            computer.processor,\n            computer.memorySize,\n            computer.graphicsCard,\n            computer.ssdCapacity,\n            computer.renterPaymentAddress\n        );\n    }\n\n    function getAllTokenIds() public view returns (uint256[] memory) {\n        return tokenIds;\n    }\n\n    function burn(uint256 tokenId) public {\n        require(_isApprovedOrOwner(_msgSender(), tokenId), \"ComputersRent: not owner nor approved\");\n\n        //   \n        address owner = ownerOf(tokenId);\n\n        // ,    \n        require(computers[tokenId].isRented == false, \"ComputersRent: computer is currently rented\");\n\n        //  \n        _burn(tokenId);\n\n        //        \n        delete computers[tokenId];\n        delete _computerName[tokenId];\n\n        //   tokenIds\n        for (uint256 i = 0; i < tokenIds.length; i++) {\n            if (tokenIds[i] == tokenId) {\n                //    ,      \n                for (uint256 j = i; j < tokenIds.length - 1; j++) {\n                    tokenIds[j] = tokenIds[j + 1];\n                }\n                tokenIds.pop();\n                break;\n            }\n        }\n    }\n\n    function refundRent(uint256 tokenId, address paymentAddress) public {\n        require(_msgSender() == ownerOf(tokenId), \"ComputersRent: only token owner can refund rent\");\n        require(computers[tokenId].isRenterPay == true, \"ComputersRent: renter has not paid\");\n\n        (bool success,) = paymentAddress.call{value: computers[tokenId].rentPricePerMinute}(\"\");\n        require(success, \"ComputersRent: failed to refund rent\");\n\n        balances[paymentAddress] -= computers[tokenId].rentPricePerMinute;\n        computers[tokenId].isRenterPay = false;\n    }\n\n    function payRent(uint256 tokenId) public payable {\n        require(computers[tokenId].isRented == false, \"ComputersRent: computer is already rented\");\n        require(_msgSender() != ownerOf(tokenId), \"ComputersRent: owner cannot pay rent\");\n        require(msg.value == computers[tokenId].rentPricePerMinute, \"ComputersRent: incorrect rent price\");\n        uint256 amount = msg.value;\n        computers[tokenId].isRenterPay = true;\n        computers[tokenId].renterPaymentAddress = _msgSender();\n        balances[_msgSender()] += amount;\n    }\n\n    function getBalances(address to) public view returns (uint256) {\n        return balances[to];\n    }\n\n    function getComputerCount() public view returns (uint256) {\n        return computers.length;\n    }\n}\n",
  "sourcePath": "/home/Kompot/Blockchain_project/DApp_CRental/computers_rent/contracts/ComputersRent.sol",
  "compiler": {
    "name": "solc",
    "version": "0.8.18+commit.87f61d96.Emscripten.clang"
  },
  "schemaVersion": "3.4.14",
  "updatedAt": "2023-06-08T20:57:10.017Z",
  "networkType": "ethereum",
  "devdoc": {
    "events": {
      "Approval(address,address,uint256)": {
        "details": "Emitted when `owner` enables `approved` to manage the `tokenId` token."
      },
      "ApprovalForAll(address,address,bool)": {
        "details": "Emitted when `owner` enables or disables (`approved`) `operator` to manage all of its assets."
      },
      "Transfer(address,address,uint256)": {
        "details": "Emitted when `tokenId` token is transferred from `from` to `to`."
      }
    },
    "kind": "dev",
    "methods": {
      "approve(address,uint256)": {
        "details": "See {IERC721-approve}."
      },
      "balanceOf(address)": {
        "details": "See {IERC721-balanceOf}."
      },
      "getApproved(uint256)": {
        "details": "See {IERC721-getApproved}."
      },
      "isApprovedForAll(address,address)": {
        "details": "See {IERC721-isApprovedForAll}."
      },
      "name()": {
        "details": "See {IERC721Metadata-name}."
      },
      "ownerOf(uint256)": {
        "details": "See {IERC721-ownerOf}."
      },
      "safeTransferFrom(address,address,uint256)": {
        "details": "See {IERC721-safeTransferFrom}."
      },
      "safeTransferFrom(address,address,uint256,bytes)": {
        "details": "See {IERC721-safeTransferFrom}."
      },
      "setApprovalForAll(address,bool)": {
        "details": "See {IERC721-setApprovalForAll}."
      },
      "supportsInterface(bytes4)": {
        "details": "See {IERC165-supportsInterface}."
      },
      "symbol()": {
        "details": "See {IERC721Metadata-symbol}."
      },
      "tokenURI(uint256)": {
        "details": "See {IERC721Metadata-tokenURI}."
      },
      "transferFrom(address,address,uint256)": {
        "details": "See {IERC721-transferFrom}."
      }
    },
    "version": 1
  },
  "userdoc": {
    "kind": "user",
    "methods": {},
    "version": 1
  }
}