{
  "contractName": "CRent",
  "abi": [
    {
      "inputs": [
        {
          "internalType": "string",
          "name": "name",
          "type": "string"
        },
        {
          "internalType": "string",
          "name": "symbol",
          "type": "string"
        }
      ],
      "stateMutability": "payable",
      "type": "constructor"
    },
    {
      "anonymous": false,
      "inputs": [
        {
          "indexed": true,
          "internalType": "address",
          "name": "owner",
          "type": "address"
        },
        {
          "indexed": true,
          "internalType": "address",
          "name": "approved",
          "type": "address"
        },
        {
          "indexed": true,
          "internalType": "uint256",
          "name": "tokenId",
          "type": "uint256"
        }
      ],
      "name": "Approval",
      "type": "event"
    },
    {
      "anonymous": false,
      "inputs": [
        {
          "indexed": true,
          "internalType": "address",
          "name": "owner",
          "type": "address"
        },
        {
          "indexed": true,
          "internalType": "address",
          "name": "operator",
          "type": "address"
        },
        {
          "indexed": false,
          "internalType": "bool",
          "name": "approved",
          "type": "bool"
        }
      ],
      "name": "ApprovalForAll",
      "type": "event"
    },
    {
      "anonymous": false,
      "inputs": [
        {
          "indexed": true,
          "internalType": "address",
          "name": "from",
          "type": "address"
        },
        {
          "indexed": true,
          "internalType": "address",
          "name": "to",
          "type": "address"
        },
        {
          "indexed": true,
          "internalType": "uint256",
          "name": "tokenId",
          "type": "uint256"
        }
      ],
      "name": "Transfer",
      "type": "event"
    },
    {
      "inputs": [
        {
          "internalType": "address",
          "name": "to",
          "type": "address"
        },
        {
          "internalType": "uint256",
          "name": "tokenId",
          "type": "uint256"
        }
      ],
      "name": "approve",
      "outputs": [],
      "stateMutability": "nonpayable",
      "type": "function"
    },
    {
      "inputs": [
        {
          "internalType": "address",
          "name": "owner",
          "type": "address"
        }
      ],
      "name": "balanceOf",
      "outputs": [
        {
          "internalType": "uint256",
          "name": "",
          "type": "uint256"
        }
      ],
      "stateMutability": "view",
      "type": "function"
    },
    {
      "inputs": [
        {
          "internalType": "uint256",
          "name": "",
          "type": "uint256"
        }
      ],
      "name": "computers",
      "outputs": [
        {
          "internalType": "string",
          "name": "name",
          "type": "string"
        },
        {
          "internalType": "address",
          "name": "owner",
          "type": "address"
        },
        {
          "internalType": "bool",
          "name": "isRented",
          "type": "bool"
        },
        {
          "internalType": "uint256",
          "name": "rentPricePerMinute",
          "type": "uint256"
        },
        {
          "internalType": "uint256",
          "name": "rentedUntil",
          "type": "uint256"
        }
      ],
      "stateMutability": "view",
      "type": "function"
    },
    {
      "inputs": [
        {
          "internalType": "uint256",
          "name": "tokenId",
          "type": "uint256"
        }
      ],
      "name": "getApproved",
      "outputs": [
        {
          "internalType": "address",
          "name": "",
          "type": "address"
        }
      ],
      "stateMutability": "view",
      "type": "function"
    },
    {
      "inputs": [
        {
          "internalType": "address",
          "name": "owner",
          "type": "address"
        },
        {
          "internalType": "address",
          "name": "operator",
          "type": "address"
        }
      ],
      "name": "isApprovedForAll",
      "outputs": [
        {
          "internalType": "bool",
          "name": "",
          "type": "bool"
        }
      ],
      "stateMutability": "view",
      "type": "function"
    },
    {
      "inputs": [],
      "name": "name",
      "outputs": [
        {
          "internalType": "string",
          "name": "",
          "type": "string"
        }
      ],
      "stateMutability": "view",
      "type": "function"
    },
    {
      "inputs": [
        {
          "internalType": "uint256",
          "name": "tokenId",
          "type": "uint256"
        }
      ],
      "name": "ownerOf",
      "outputs": [
        {
          "internalType": "address",
          "name": "",
          "type": "address"
        }
      ],
      "stateMutability": "view",
      "type": "function"
    },
    {
      "inputs": [
        {
          "internalType": "address",
          "name": "from",
          "type": "address"
        },
        {
          "internalType": "address",
          "name": "to",
          "type": "address"
        },
        {
          "internalType": "uint256",
          "name": "tokenId",
          "type": "uint256"
        }
      ],
      "name": "safeTransferFrom",
      "outputs": [],
      "stateMutability": "nonpayable",
      "type": "function"
    },
    {
      "inputs": [
        {
          "internalType": "address",
          "name": "from",
          "type": "address"
        },
        {
          "internalType": "address",
          "name": "to",
          "type": "address"
        },
        {
          "internalType": "uint256",
          "name": "tokenId",
          "type": "uint256"
        },
        {
          "internalType": "bytes",
          "name": "data",
          "type": "bytes"
        }
      ],
      "name": "safeTransferFrom",
      "outputs": [],
      "stateMutability": "nonpayable",
      "type": "function"
    },
    {
      "inputs": [
        {
          "internalType": "address",
          "name": "operator",
          "type": "address"
        },
        {
          "internalType": "bool",
          "name": "approved",
          "type": "bool"
        }
      ],
      "name": "setApprovalForAll",
      "outputs": [],
      "stateMutability": "nonpayable",
      "type": "function"
    },
    {
      "inputs": [
        {
          "internalType": "bytes4",
          "name": "interfaceId",
          "type": "bytes4"
        }
      ],
      "name": "supportsInterface",
      "outputs": [
        {
          "internalType": "bool",
          "name": "",
          "type": "bool"
        }
      ],
      "stateMutability": "view",
      "type": "function"
    },
    {
      "inputs": [],
      "name": "symbol",
      "outputs": [
        {
          "internalType": "string",
          "name": "",
          "type": "string"
        }
      ],
      "stateMutability": "view",
      "type": "function"
    },
    {
      "inputs": [
        {
          "internalType": "uint256",
          "name": "tokenId",
          "type": "uint256"
        }
      ],
      "name": "tokenURI",
      "outputs": [
        {
          "internalType": "string",
          "name": "",
          "type": "string"
        }
      ],
      "stateMutability": "view",
      "type": "function"
    },
    {
      "inputs": [
        {
          "internalType": "address",
          "name": "from",
          "type": "address"
        },
        {
          "internalType": "address",
          "name": "to",
          "type": "address"
        },
        {
          "internalType": "uint256",
          "name": "tokenId",
          "type": "uint256"
        }
      ],
      "name": "transferFrom",
      "outputs": [],
      "stateMutability": "nonpayable",
      "type": "function"
    },
    {
      "inputs": [
        {
          "internalType": "address",
          "name": "to",
          "type": "address"
        },
        {
          "internalType": "string",
          "name": "computerName_",
          "type": "string"
        },
        {
          "internalType": "uint256",
          "name": "rentPricePerMinute",
          "type": "uint256"
        }
      ],
      "name": "mint",
      "outputs": [
        {
          "internalType": "uint256",
          "name": "",
          "type": "uint256"
        }
      ],
      "stateMutability": "nonpayable",
      "type": "function"
    },
    {
      "inputs": [
        {
          "internalType": "uint256",
          "name": "tokenId",
          "type": "uint256"
        },
        {
          "internalType": "address",
          "name": "to",
          "type": "address"
        }
      ],
      "name": "rentByTime",
      "outputs": [],
      "stateMutability": "payable",
      "type": "function"
    },
    {
      "inputs": [
        {
          "internalType": "uint256",
          "name": "tokenId",
          "type": "uint256"
        },
        {
          "internalType": "address",
          "name": "from",
          "type": "address"
        }
      ],
      "name": "returnFromRent",
      "outputs": [],
      "stateMutability": "nonpayable",
      "type": "function"
    },
    {
      "inputs": [
        {
          "internalType": "uint256",
          "name": "tokenId",
          "type": "uint256"
        }
      ],
      "name": "isRented",
      "outputs": [
        {
          "internalType": "bool",
          "name": "",
          "type": "bool"
        }
      ],
      "stateMutability": "view",
      "type": "function"
    },
    {
      "inputs": [
        {
          "internalType": "uint256",
          "name": "tokenId",
          "type": "uint256"
        }
      ],
      "name": "computerName",
      "outputs": [
        {
          "internalType": "string",
          "name": "",
          "type": "string"
        }
      ],
      "stateMutability": "view",
      "type": "function"
    },
    {
      "inputs": [
        {
          "internalType": "uint256",
          "name": "tokenId",
          "type": "uint256"
        }
      ],
      "name": "payRent",
      "outputs": [],
      "stateMutability": "payable",
      "type": "function"
    },
    {
      "inputs": [
        {
          "internalType": "address",
          "name": "to",
          "type": "address"
        }
      ],
      "name": "getBalances",
      "outputs": [
        {
          "internalType": "uint256",
          "name": "",
          "type": "uint256"
        }
      ],
      "stateMutability": "view",
      "type": "function"
    }
  ],
  "bytecode": "0x60806040526040516200262038038062002620833981016040819052620000269162000115565b818160006200003683826200020e565b5060016200004582826200020e565b5050505050620002da565b634e487b7160e01b600052604160045260246000fd5b600082601f8301126200007857600080fd5b81516001600160401b038082111562000095576200009562000050565b604051601f8301601f19908116603f01168101908282118183101715620000c057620000c062000050565b81604052838152602092508683858801011115620000dd57600080fd5b600091505b83821015620001015785820183015181830184015290820190620000e2565b600093810190920192909252949350505050565b600080604083850312156200012957600080fd5b82516001600160401b03808211156200014157600080fd5b6200014f8683870162000066565b935060208501519150808211156200016657600080fd5b50620001758582860162000066565b9150509250929050565b600181811c908216806200019457607f821691505b602082108103620001b557634e487b7160e01b600052602260045260246000fd5b50919050565b601f8211156200020957600081815260208120601f850160051c81016020861015620001e45750805b601f850160051c820191505b818110156200020557828155600101620001f0565b5050505b505050565b81516001600160401b038111156200022a576200022a62000050565b62000242816200023b84546200017f565b84620001bb565b602080601f8311600181146200027a5760008415620002615750858301515b600019600386901b1c1916600185901b17855562000205565b600085815260208120601f198616915b82811015620002ab578886015182559484019460019091019084016200028a565b5085821015620002ca5787850151600019600388901b60f8161c191681555b5050505050600190811b01905550565b61233680620002ea6000396000f3fe60806040526004361061012a5760003560e01c806372d3014c116100ab578063b88d4fde1161006f578063b88d4fde14610347578063ba7aef4314610367578063c84aae1714610387578063c87b56dd146103bd578063d9e8843f146103dd578063e985e9c5146103f057600080fd5b806372d3014c146102bf5780638377213f146102d257806395d89b41146102f2578063a22cb46514610307578063aa15d40f1461032757600080fd5b806342842e0e116100f257806342842e0e14610200578063541e5e5114610220578063634268aa146102405780636352211e1461027157806370a082311461029157600080fd5b806301ffc9a71461012f57806306fdde0314610164578063081812fc14610186578063095ea7b3146101be57806323b872dd146101e0575b600080fd5b34801561013b57600080fd5b5061014f61014a366004611c65565b610410565b60405190151581526020015b60405180910390f35b34801561017057600080fd5b50610179610462565b60405161015b9190611cd2565b34801561019257600080fd5b506101a66101a1366004611ce5565b6104f4565b6040516001600160a01b03909116815260200161015b565b3480156101ca57600080fd5b506101de6101d9366004611d1a565b61051b565b005b3480156101ec57600080fd5b506101de6101fb366004611d44565b610635565b34801561020c57600080fd5b506101de61021b366004611d44565b610666565b34801561022c57600080fd5b5061017961023b366004611ce5565b610681565b34801561024c57600080fd5b5061026061025b366004611ce5565b6107ac565b60405161015b959493929190611d80565b34801561027d57600080fd5b506101a661028c366004611ce5565b61088a565b34801561029d57600080fd5b506102b16102ac366004611dc0565b6108ea565b60405190815260200161015b565b6101de6102cd366004611ddb565b610970565b3480156102de57600080fd5b506101de6102ed366004611ddb565b610d37565b3480156102fe57600080fd5b506101796110cd565b34801561031357600080fd5b506101de610322366004611e07565b6110dc565b34801561033357600080fd5b5061014f610342366004611ce5565b6110eb565b34801561035357600080fd5b506101de610362366004611ecf565b611124565b34801561037357600080fd5b506102b1610382366004611f4b565b61115b565b34801561039357600080fd5b506102b16103a2366004611dc0565b6001600160a01b031660009081526008602052604090205490565b3480156103c957600080fd5b506101796103d8366004611ce5565b6112a7565b6101de6103eb366004611ce5565b61131b565b3480156103fc57600080fd5b5061014f61040b366004611fb6565b611496565b60006001600160e01b031982166380ac58cd60e01b148061044157506001600160e01b03198216635b5e139f60e01b145b8061045c57506301ffc9a760e01b6001600160e01b03198316145b92915050565b60606000805461047190611fe0565b80601f016020809104026020016040519081016040528092919081815260200182805461049d90611fe0565b80156104ea5780601f106104bf576101008083540402835291602001916104ea565b820191906000526020600020905b8154815290600101906020018083116104cd57829003601f168201915b5050505050905090565b60006104ff826114c4565b506000908152600460205260409020546001600160a01b031690565b60006105268261088a565b9050806001600160a01b0316836001600160a01b0316036105985760405162461bcd60e51b815260206004820152602160248201527f4552433732313a20617070726f76616c20746f2063757272656e74206f776e656044820152603960f91b60648201526084015b60405180910390fd5b336001600160a01b03821614806105b457506105b48133611496565b6106265760405162461bcd60e51b815260206004820152603d60248201527f4552433732313a20617070726f76652063616c6c6572206973206e6f7420746f60448201527f6b656e206f776e6572206f7220617070726f76656420666f7220616c6c000000606482015260840161058f565b6106308383611526565b505050565b61063f3382611594565b61065b5760405162461bcd60e51b815260040161058f9061201a565b6106308383836115f3565b61063083838360405180602001604052806000815250611124565b6000818152600260205260409020546060906001600160a01b031661070e5760405162461bcd60e51b815260206004820152603960248201527f4552433732314d657461646174613a20636f6d7075746572206e616d6520717560448201527f65727920666f72206e6f6e6578697374656e7420746f6b656e00000000000000606482015260840161058f565b6000828152600760205260409020805461072790611fe0565b80601f016020809104026020016040519081016040528092919081815260200182805461075390611fe0565b80156107a05780601f10610775576101008083540402835291602001916107a0565b820191906000526020600020905b81548152906001019060200180831161078357829003601f168201915b50505050509050919050565b600681815481106107bc57600080fd5b90600052602060002090600402016000915090508060000180546107df90611fe0565b80601f016020809104026020016040519081016040528092919081815260200182805461080b90611fe0565b80156108585780601f1061082d57610100808354040283529160200191610858565b820191906000526020600020905b81548152906001019060200180831161083b57829003601f168201915b505050506001830154600284015460039094015492936001600160a01b03821693600160a01b90920460ff1692509085565b6000818152600260205260408120546001600160a01b03168061045c5760405162461bcd60e51b8152602060048201526018602482015277115490cdcc8c4e881a5b9d985b1a59081d1bdad95b88125160421b604482015260640161058f565b60006001600160a01b0382166109545760405162461bcd60e51b815260206004820152602960248201527f4552433732313a2061646472657373207a65726f206973206e6f7420612076616044820152683634b21037bbb732b960b91b606482015260840161058f565b506001600160a01b031660009081526003602052604090205490565b61097b335b83611594565b6109c75760405162461bcd60e51b815260206004820152601d60248201527f4352656e743a206e6f74206f776e6572206e6f7220617070726f766564000000604482015260640161058f565b600682815481106109da576109da612067565b6000918252602090912060049091020160010154600160a01b900460ff1615610a455760405162461bcd60e51b815260206004820152601d60248201527f4352656e743a20636f6d7075746572206973206e6f742072656e746564000000604482015260640161058f565b60068281548110610a5857610a58612067565b90600052602060002090600402016002015460086000836001600160a01b03166001600160a01b03168152602001908152602001600020541015610af05760405162461bcd60e51b815260206004820152602960248201527f4352656e743a206e6f7420656e6f7567682062616c616e636520746f2070617960448201526808199bdc881c995b9d60ba1b606482015260840161058f565b6001600160a01b0381163303610b6e5760405162461bcd60e51b815260206004820152603760248201527f4352656e743a20636f6d70757465722063616e206f6e6c792062652072656e7460448201527f656420746f207370656369666965642061646472657373000000000000000000606482015260840161058f565b60068281548110610b8157610b81612067565b90600052602060002090600402016002015460086000836001600160a01b03166001600160a01b031681526020019081526020016000206000828254610bc79190612093565b92505081905550600060068381548110610be357610be3612067565b6000918252602090912060016004909202010154600680546001600160a01b039092169185908110610c1757610c17612067565b90600052602060002090600402016002015460405160006040518083038185875af1925050503d8060008114610c69576040519150601f19603f3d011682016040523d82523d6000602084013e610c6e565b606091505b5050905080610cb65760405162461bcd60e51b81526020600482015260146024820152734661696c656420746f2073656e642066756e647360601b604482015260640161058f565b610cc142603c6120a6565b60068481548110610cd457610cd4612067565b906000526020600020906004020160030181905550600160068481548110610cfe57610cfe612067565b906000526020600020906004020160010160146101000a81548160ff021916908315150217905550610630610d303390565b83856115f3565b600a5460009067ffffffffffffffff811115610d5557610d55611e43565b604051908082528060200260200182016040528015610d7e578160200160208202803683370190505b50905060005b600a54811015610e4a5760096000600a8381548110610da557610da5612067565b60009182526020808320909101546001600160a01b031683528201929092526040019020548403610e3857600a8181548110610de357610de3612067565b9060005260206000200160009054906101000a90046001600160a01b0316828281518110610e1357610e13612067565b60200260200101906001600160a01b031690816001600160a01b031681525050610e4a565b80610e42816120b9565b915050610d84565b50816001600160a01b031681600081518110610e6857610e68612067565b60200260200101516001600160a01b031603610edf5760405162461bcd60e51b815260206004820152603060248201527f4352656e743a206f776e65722063616e27742072657475726e206f6620746f6b60448201526f32b710333937b6903cb7bab939b2b63360811b606482015260840161058f565b336001600160a01b031681600081518110610efc57610efc612067565b60200260200101516001600160a01b031614610f695760405162461bcd60e51b815260206004820152602660248201527f4352656e743a20796f7520617265206e6f74206f776e6572206f662074686973604482015265103a37b5b2b760d11b606482015260840161058f565b60068381548110610f7c57610f7c612067565b60009182526020909120600160049092020181015460ff600160a01b90910416151514610feb5760405162461bcd60e51b815260206004820152601d60248201527f4352656e743a20636f6d7075746572206973206e6f742072656e746564000000604482015260640161058f565b60068381548110610ffe57610ffe612067565b90600052602060002090600402016003015442101561106b5760405162461bcd60e51b8152602060048201526024808201527f4352656e743a2072656e742074696d6520686173206e6f7420796574206578706044820152631a5c995960e21b606482015260840161058f565b60006006848154811061108057611080612067565b906000526020600020906004020160010160146101000a81548160ff02191690831515021790555061063082826000815181106110bf576110bf612067565b6020026020010151856115f3565b60606001805461047190611fe0565b6110e7338383611757565b5050565b60006006828154811061110057611100612067565b6000918252602090912060049091020160010154600160a01b900460ff1692915050565b61112d33610975565b6111495760405162461bcd60e51b815260040161058f9061201a565b61115584848484611825565b50505050565b600680546040805160a0810182528581526001600160a01b0387166020820152600091810182905260608101859052608081018290526001830184559281528251909290600483027ff652222313e28459528d920b65115c16c04f3efc82aaedc97be59f3f377c0d3f019081906111d29082612120565b506020828101516001830180546040808701511515600160a01b026001600160a81b03199092166001600160a01b03909416939093171790556060840151600284015560809093015160039092019190915560008381526007909152206112398582612120565b506112448582611858565b6001600160a01b0385166000818152600960205260408120839055600a805460018101825591527fc65a7bb8d6351c1cf70c95a316cc6a92839c986682d98bc35f958f4883f9d2a80180546001600160a01b031916909117905590509392505050565b60606112b2826114c4565b60006112c960408051602081019091526000815290565b905060008151116112e95760405180602001604052806000815250611314565b806112f3846119e3565b6040516020016113049291906121e0565b6040516020818303038152906040525b9392505050565b6006818154811061132e5761132e612067565b6000918252602090912060049091020160010154600160a01b900460ff16156113995760405162461bcd60e51b815260206004820152601960248201527f4352656e743a20636f6d70757465722069732072656e74656400000000000000604482015260640161058f565b6113a28161088a565b6001600160a01b031633036113f95760405162461bcd60e51b815260206004820152601c60248201527f4352656e743a206f776e65722063616e6e6f74207061792072656e7400000000604482015260640161058f565b6006818154811061140c5761140c612067565b906000526020600020906004020160020154341461146c5760405162461bcd60e51b815260206004820152601b60248201527f4352656e743a20696e636f72726563742072656e742070726963650000000000604482015260640161058f565b3360009081526008602052604081208054349283929161148d9084906120a6565b90915550505050565b6001600160a01b03918216600090815260056020908152604080832093909416825291909152205460ff1690565b6000818152600260205260409020546001600160a01b03166115235760405162461bcd60e51b8152602060048201526018602482015277115490cdcc8c4e881a5b9d985b1a59081d1bdad95b88125160421b604482015260640161058f565b50565b600081815260046020526040902080546001600160a01b0319166001600160a01b038416908117909155819061155b8261088a565b6001600160a01b03167f8c5be1e5ebec7d5bd14f71427d1e84f3dd0314c0f7b2291e5b200ac8c7c3b92560405160405180910390a45050565b6000806115a08361088a565b9050806001600160a01b0316846001600160a01b031614806115c757506115c78185611496565b806115eb5750836001600160a01b03166115e0846104f4565b6001600160a01b0316145b949350505050565b826001600160a01b03166116068261088a565b6001600160a01b03161461162c5760405162461bcd60e51b815260040161058f9061220f565b6001600160a01b03821661168e5760405162461bcd60e51b8152602060048201526024808201527f4552433732313a207472616e7366657220746f20746865207a65726f206164646044820152637265737360e01b606482015260840161058f565b826001600160a01b03166116a18261088a565b6001600160a01b0316146116c75760405162461bcd60e51b815260040161058f9061220f565b600081815260046020908152604080832080546001600160a01b03199081169091556001600160a01b0387811680865260038552838620805460001901905590871680865283862080546001019055868652600290945282852080549092168417909155905184937fddf252ad1be2c89b69c2b068fc378daa952ba7f163c4a11628f55a4df523b3ef91a4505050565b816001600160a01b0316836001600160a01b0316036117b85760405162461bcd60e51b815260206004820152601960248201527f4552433732313a20617070726f766520746f2063616c6c657200000000000000604482015260640161058f565b6001600160a01b03838116600081815260056020908152604080832094871680845294825291829020805460ff191686151590811790915591519182527f17307eab39ab6107e8899845ad3d59bd9653f200f220920489ca2b5937696c31910160405180910390a3505050565b6118308484846115f3565b61183c84848484611a76565b6111555760405162461bcd60e51b815260040161058f90612254565b6001600160a01b0382166118ae5760405162461bcd60e51b815260206004820181905260248201527f4552433732313a206d696e7420746f20746865207a65726f2061646472657373604482015260640161058f565b6000818152600260205260409020546001600160a01b0316156119135760405162461bcd60e51b815260206004820152601c60248201527f4552433732313a20746f6b656e20616c7265616479206d696e74656400000000604482015260640161058f565b6000818152600260205260409020546001600160a01b0316156119785760405162461bcd60e51b815260206004820152601c60248201527f4552433732313a20746f6b656e20616c7265616479206d696e74656400000000604482015260640161058f565b6001600160a01b038216600081815260036020908152604080832080546001019055848352600290915280822080546001600160a01b0319168417905551839291907fddf252ad1be2c89b69c2b068fc378daa952ba7f163c4a11628f55a4df523b3ef908290a45050565b606060006119f083611b77565b600101905060008167ffffffffffffffff811115611a1057611a10611e43565b6040519080825280601f01601f191660200182016040528015611a3a576020820181803683370190505b5090508181016020015b600019016f181899199a1a9b1b9c1cb0b131b232b360811b600a86061a8153600a8504945084611a4457509392505050565b60006001600160a01b0384163b15611b6c57604051630a85bd0160e11b81526001600160a01b0385169063150b7a0290611aba9033908990889088906004016122a6565b6020604051808303816000875af1925050508015611af5575060408051601f3d908101601f19168201909252611af2918101906122e3565b60015b611b52573d808015611b23576040519150601f19603f3d011682016040523d82523d6000602084013e611b28565b606091505b508051600003611b4a5760405162461bcd60e51b815260040161058f90612254565b805181602001fd5b6001600160e01b031916630a85bd0160e11b1490506115eb565b506001949350505050565b60008072184f03e93ff9f4daa797ed6e38ed64bf6a1f0160401b8310611bb65772184f03e93ff9f4daa797ed6e38ed64bf6a1f0160401b830492506040015b6d04ee2d6d415b85acef81000000008310611be2576d04ee2d6d415b85acef8100000000830492506020015b662386f26fc100008310611c0057662386f26fc10000830492506010015b6305f5e1008310611c18576305f5e100830492506008015b6127108310611c2c57612710830492506004015b60648310611c3e576064830492506002015b600a831061045c5760010192915050565b6001600160e01b03198116811461152357600080fd5b600060208284031215611c7757600080fd5b813561131481611c4f565b60005b83811015611c9d578181015183820152602001611c85565b50506000910152565b60008151808452611cbe816020860160208601611c82565b601f01601f19169290920160200192915050565b6020815260006113146020830184611ca6565b600060208284031215611cf757600080fd5b5035919050565b80356001600160a01b0381168114611d1557600080fd5b919050565b60008060408385031215611d2d57600080fd5b611d3683611cfe565b946020939093013593505050565b600080600060608486031215611d5957600080fd5b611d6284611cfe565b9250611d7060208501611cfe565b9150604084013590509250925092565b60a081526000611d9360a0830188611ca6565b6001600160a01b039690961660208301525092151560408401526060830191909152608090910152919050565b600060208284031215611dd257600080fd5b61131482611cfe565b60008060408385031215611dee57600080fd5b82359150611dfe60208401611cfe565b90509250929050565b60008060408385031215611e1a57600080fd5b611e2383611cfe565b915060208301358015158114611e3857600080fd5b809150509250929050565b634e487b7160e01b600052604160045260246000fd5b600067ffffffffffffffff80841115611e7457611e74611e43565b604051601f8501601f19908116603f01168101908282118183101715611e9c57611e9c611e43565b81604052809350858152868686011115611eb557600080fd5b858560208301376000602087830101525050509392505050565b60008060008060808587031215611ee557600080fd5b611eee85611cfe565b9350611efc60208601611cfe565b925060408501359150606085013567ffffffffffffffff811115611f1f57600080fd5b8501601f81018713611f3057600080fd5b611f3f87823560208401611e59565b91505092959194509250565b600080600060608486031215611f6057600080fd5b611f6984611cfe565b9250602084013567ffffffffffffffff811115611f8557600080fd5b8401601f81018613611f9657600080fd5b611fa586823560208401611e59565b925050604084013590509250925092565b60008060408385031215611fc957600080fd5b611fd283611cfe565b9150611dfe60208401611cfe565b600181811c90821680611ff457607f821691505b60208210810361201457634e487b7160e01b600052602260045260246000fd5b50919050565b6020808252602d908201527f4552433732313a2063616c6c6572206973206e6f7420746f6b656e206f776e6560408201526c1c881bdc88185c1c1c9bdd9959609a1b606082015260800190565b634e487b7160e01b600052603260045260246000fd5b634e487b7160e01b600052601160045260246000fd5b8181038181111561045c5761045c61207d565b8082018082111561045c5761045c61207d565b6000600182016120cb576120cb61207d565b5060010190565b601f82111561063057600081815260208120601f850160051c810160208610156120f95750805b601f850160051c820191505b8181101561211857828155600101612105565b505050505050565b815167ffffffffffffffff81111561213a5761213a611e43565b61214e816121488454611fe0565b846120d2565b602080601f831160018114612183576000841561216b5750858301515b600019600386901b1c1916600185901b178555612118565b600085815260208120601f198616915b828110156121b257888601518255948401946001909101908401612193565b50858210156121d05787850151600019600388901b60f8161c191681555b5050505050600190811b01905550565b600083516121f2818460208801611c82565b835190830190612206818360208801611c82565b01949350505050565b60208082526025908201527f4552433732313a207472616e736665722066726f6d20696e636f72726563742060408201526437bbb732b960d91b606082015260800190565b60208082526032908201527f4552433732313a207472616e7366657220746f206e6f6e20455243373231526560408201527131b2b4bb32b91034b6b83632b6b2b73a32b960711b606082015260800190565b6001600160a01b03858116825284166020820152604081018390526080606082018190526000906122d990830184611ca6565b9695505050505050565b6000602082840312156122f557600080fd5b815161131481611c4f56fea26469706673582212207aa140c77e9ff2d1be378fc8b30dcafa5e66fee4449777d26ed0591ce704e3cd64736f6c63430008120033",
  "immutableReferences": {},
  "source": "pragma solidity ^0.8.18;\n\nimport \"@openzeppelin/contracts/token/ERC721/ERC721.sol\";\n\ncontract CRent is ERC721 {\n    struct Computer {\n        string name;\n        address owner;\n        bool isRented;\n        uint256 rentPricePerMinute;\n        uint256 rentedUntil;\n    }\n\n    Computer[] public computers;\n    mapping (uint256 => string) private _computerName;\n    mapping(address => uint256) balances;\n\n    mapping(address => uint256) private firstOwner;\n    address[] firstOwners;\n\n    constructor(string memory name, string memory symbol) ERC721(name, symbol) payable {}\n\n    function mint(address to, string memory computerName_, uint256 rentPricePerMinute) public returns (uint256) {\n        uint256 tokenId = computers.length;\n        computers.push(Computer(computerName_, to, false, rentPricePerMinute, 0));  \n        _computerName[tokenId] = computerName_;\n        _mint(to, tokenId);\n        firstOwner[to] = tokenId;\n        firstOwners.push(to);\n        return tokenId;\n    }\n\n    function rentByTime(uint256 tokenId, address to) public payable {\n        require(_isApprovedOrOwner(_msgSender(), tokenId), \"CRent: not owner nor approved\");\n        require(computers[tokenId].isRented == false, \"CRent: computer is not rented\");\n        \n        require(balances[to] >= computers[tokenId].rentPricePerMinute, \"CRent: not enough balance to pay for rent\");\n        require(_msgSender() != to, \"CRent: computer can only be rented to specified address\");\n\n        balances[to] -= computers[tokenId].rentPricePerMinute;\n\n        (bool success,) = computers[tokenId].owner.call{value: computers[tokenId].rentPricePerMinute}(\"\");\n        require(success, \"Failed to send funds\");\n\n        computers[tokenId].rentedUntil = block.timestamp + 60;\n\n        computers[tokenId].isRented = true;\n        _transfer(_msgSender(), to, tokenId);\n\n    }\n\n    function returnFromRent(uint256 tokenId, address from) public {\n\n        address[] memory mAddresses = new address[](firstOwners.length);\n\n        for (uint i = 0; i < firstOwners.length; i++){\n            if (tokenId == firstOwner[firstOwners[i]]){\n                mAddresses[i] = firstOwners[i];\n                break;\n            }\n        }\n\n        require(mAddresses[0] != from, \"CRent: owner can't return of token from yourself\");\n        require(mAddresses[0] == _msgSender(), \"CRent: you are not owner of this token\");\n        require(computers[tokenId].isRented == true, \"CRent: computer is not rented\");\n        require(block.timestamp >= computers[tokenId].rentedUntil, \"CRent: rent time has not yet expired\");\n        computers[tokenId].isRented = false;\n\n        _transfer(from, mAddresses[0], tokenId);\n    }\n\n    function isRented(uint256 tokenId) public view returns (bool) {\n        return computers[tokenId].isRented;\n    }\n\n    function computerName(uint256 tokenId) public view returns (string memory) {\n        require(_exists(tokenId), \"ERC721Metadata: computer name query for nonexistent token\");\n        return _computerName[tokenId];\n    }\n\n    function payRent(uint256 tokenId) public payable {\n        require(computers[tokenId].isRented == false, \"CRent: computer is rented\");\n        require(_msgSender() != ownerOf(tokenId), \"CRent: owner cannot pay rent\");\n        require(msg.value == computers[tokenId].rentPricePerMinute, \"CRent: incorrect rent price\");\n        uint256 amount = msg.value;\n        balances[_msgSender()] += amount;\n    }\n\n    function getBalances(address to) public view returns (uint256) {\n        return balances[to];\n    }\n}\n",
  "sourcePath": "/home/Kompot/Blockchain_project/DApp_CRental/computers_rent/contracts/CRent.sol",
  "compiler": {
    "name": "solc",
    "version": "0.8.18+commit.87f61d96.Emscripten.clang"
  },
  "schemaVersion": "3.4.14",
  "updatedAt": "2023-06-04T18:24:47.975Z",
  "devdoc": {
    "events": {
      "Approval(address,address,uint256)": {
        "details": "Emitted when `owner` enables `approved` to manage the `tokenId` token."
      },
      "ApprovalForAll(address,address,bool)": {
        "details": "Emitted when `owner` enables or disables (`approved`) `operator` to manage all of its assets."
      },
      "Transfer(address,address,uint256)": {
        "details": "Emitted when `tokenId` token is transferred from `from` to `to`."
      }
    },
    "kind": "dev",
    "methods": {
      "approve(address,uint256)": {
        "details": "See {IERC721-approve}."
      },
      "balanceOf(address)": {
        "details": "See {IERC721-balanceOf}."
      },
      "getApproved(uint256)": {
        "details": "See {IERC721-getApproved}."
      },
      "isApprovedForAll(address,address)": {
        "details": "See {IERC721-isApprovedForAll}."
      },
      "name()": {
        "details": "See {IERC721Metadata-name}."
      },
      "ownerOf(uint256)": {
        "details": "See {IERC721-ownerOf}."
      },
      "safeTransferFrom(address,address,uint256)": {
        "details": "See {IERC721-safeTransferFrom}."
      },
      "safeTransferFrom(address,address,uint256,bytes)": {
        "details": "See {IERC721-safeTransferFrom}."
      },
      "setApprovalForAll(address,bool)": {
        "details": "See {IERC721-setApprovalForAll}."
      },
      "supportsInterface(bytes4)": {
        "details": "See {IERC165-supportsInterface}."
      },
      "symbol()": {
        "details": "See {IERC721Metadata-symbol}."
      },
      "tokenURI(uint256)": {
        "details": "See {IERC721Metadata-tokenURI}."
      },
      "transferFrom(address,address,uint256)": {
        "details": "See {IERC721-transferFrom}."
      }
    },
    "version": 1
  },
  "userdoc": {
    "kind": "user",
    "methods": {},
    "version": 1
  }
}